:020000040000FA
:100000000804002001080000FD000000F7000000C7
:10001000F7000000F7000000F7000000F700000004
:10002000000000000000000000000000F7000000D9
:10003000F700000000000000F7000000F7000000DB
:100040004B1900001D1A0000D3190000E118000030
:040050004000340038
:020000040000FA
:1000540040EA01039B0703D009E008C9121F08C046
:10006400042AFAD203E011F8013B00F8013B521EC6
:10007400F9D27047D2B201E000F8012B491EFBD23D
:1000840070470022F6E710B513460A46044619469F
:10009400FFF7F0FF204610BD421C10F8011B002999
:1000A400FBD1801A704710B5002200E0521C835C1B
:1000B4008C5CA34201D1002BF8D1D8B2E1B2401A32
:1000C40010BD30B504460020034600E05B1C93429B
:1000D40003D2E05CCD5C401BF8D030BD0022CBB233
:1000E4000178994200D10246401C0029F8D11046FB
:1000F400704700BE704700002DE9F04146F2201819
:10010400C4F20008B8F80000B8F8201040F23045F6
:1001140001EA0006B7B20024C2F2000527FA04F08F
:10012400C00704D055F8241009B12046884701348B
:100134000E2CF3D1A8F81060BDE8F081B0B543F2FD
:100144002404C4F208040025C8200121257100F00C
:1001540082F8257020780028FCD1207840F0020035
:10016400207000BF20788007FCD4002004F8020C23
:1001740014F8020C0028FBD1002004F11C0100BF7C
:1001840011F8102002F07F0201F8102011F910205C
:10019400002AFBD401300328F2D1012000F00BF82F
:1001A4004EF2BB420021C4F2010201201170BDE8ED
:1001B400B04000F027B880B50122EFF3108182F33C
:1001C400108840F29272C2F2000232F810308BB9F9
:1001D4004EF2FE3C41F62443C4F2010CC0F200038B
:1001E400BCF800E033F8103043EA0E0343F425432F
:1001F400ACF8003032F81030013322F8103081F3BB
:10020400108880BD0122EFF3108182F3108840F240
:100214009272C2F2000232F8103023B132F8103078
:10022400013B22F8103032F810208AB94EF2FE3C1D
:10023400C4F2010C41F62442BCF80030C0F20002C2
:1002440032F8100043F4254222EA0000ACF8000022
:1002540081F31088704740F22442C2F2000213680E
:1002640001FB00F04CF60021C3F69A3148F638122F
:10027400C0F24102B1FBF3F1904207D24FF47A721B
:1002840000FB02F0B0FBF1F0800808E08900B0FB4D
:10029400F1F0904207D24FF47A7100FB01F008B1FB
:1002A40000F023BC70474FF0FF3000F01EBC7047D5
:1002B400022818BF704740F2704041F6B831C2F2CC
:1002C4000000C0F20001AFF3008080B545F2542273
:1002D400C5F24F020260084601F080FA002080BD9A
:1002E400C8B2012383409BB24FF4803C002A08BF6C
:1002F4000CFA00F34FF4FF5000EAD1010822C4F2D3
:10030400080200208B5070478A0701D4062206E0B9
:10031400026A937803F07B03937000220261C90799
:100324001CBF002282611046704710B5C2690123C8
:10033400127803FA02F212F0060F02D00A781207BA
:1003440023D4026A4FF0000E92F802C00CF00B03A3
:100354009370036A8A78C0F80CE05A704A781C7863
:1003640002F0030204F0FC0422441A70CA789A745E
:10037400DA79097802F0A30201F05C011144D97121
:10038400006A0CF07B01817001E04FF0030E7046AF
:1003940010BD8446C0E909130020CCF82C20704716
:1003A400026A002141609170C1694EF2801C4A6961
:1003B400012102F01F0301FA03F35209CEF2000CEB
:1003C4004CF82230BFF34F8FBFF36F8FC269D26AEC
:1003D40002F01F0301FA03F352094CF82230BFF371
:1003E4004F8FBFF36F8FC269D26902F01F0301FA06
:1003F40003F352094CF82230BFF34F8FBFF36F8FD2
:10040400C269526A02F01F0301FA03F352094CF85D
:100414002230BFF34F8FBFF36F8FEFF3108281F35E
:10042400108844F20403C069C4F2080300784FF052
:10043400004C19682CFA00F008431860186882F31D
:100444001088002070474FF0FF3200200A604A6095
:1004540070470A780123934013F0060F05D00B6C04
:10046400DB681B781B0700F1E0802DE9F04748F2B8
:100474000003C4F2110343EA0222D1E90E364FF01D
:10048400000843628378C66223F003035E1C86700F
:100494004E68026280F80080C161C0F8288016B9F5
:1004A40043F002038370CF6A4EF2001C07F01F036F
:1004B4004FF0010ECEF2000C0EFA03F30CF180049F
:1004C4007E0991F8285044F82630BFF34F8F46F246
:1004D400003AC4F2000ABFF36F8F5AF827602A016A
:1004E40026F480364AF827600CF540755AF82760E0
:1004F400EA554A6940F64C4902F01F06C2F2000967
:100504000EFA06F6530949F827000F7C44F82360D5
:10051400BFF34F8FBFF36F8F5AF822303E0123F49D
:1005240080334AF822305AF82230AE5449F8220077
:10053400CA690B7E02F01F060EFA06F6570944F844
:100544002760BFF34F8FBFF36F8F5AF822601B01F0
:1005540026F480364AF822605AF82260AB5449F8EF
:1005640022004A6A91F8203002F01F060EFA06F6BD
:10057400570944F82760BFF34F8FBFF36F8F5AF8C2
:1005840022401B0124F480344AF822405AF82240C5
:10059400AB5449F82200EFF310828EF3108844F232
:1005A40004050B78C4F208054FF000442E6824FAC1
:1005B40003F326EA03032B602B6882F31088026A94
:1005C40082F80280026A82F80480026A82F8098052
:1005D400026A82F80A80026A82F80B80026AA2F830
:1005E4001A800A780EFA02F340F21922134202D05A
:1005F400036A4024DC74036A06241C770B780EFA21
:1006040003F3134203D0026A4FF478439382D1E98F
:100614000163CA684FEAC20242EA03123EB1032EE2
:1006240008BF42F04002F22602E00322ADE0E226D7
:10063400036A02271A70026A002596710A6C93698C
:1006440007EA4307082B036A08BF0A275F73066A91
:10065400D2E9013735721668DB0126F00106022E55
:10066400DEB267F345160AD1036AFF275F7012688A
:10067400022A026A08BF46F01006D67117E0036A20
:10068400DE71D268036A97785F7057781E7807F036
:10069400030706F0FC0637441F70D7789F74DF7990
:1006A400127807F0A30702F05C023A44DA710022E0
:1006B400C369C0E90322C0E90522D1F840E05B69BF
:1006C4009EF800105AF8234003F01F0524F48034E8
:1006D4004AF823405AF82340012404FA05F60CF59D
:1006E400C0755B09BFF35F8F45F823604CF8236046
:1006F400C369DB6A5AF8236026F480364AF823601B
:100704005AF8236003F01F0604FA06F65B09BFF3E8
:100714005F8F45F823604CF82360C369DB695AF89E
:10072400236026F480364AF823605AF8236003F0E5
:100734001F0604FA06F65B09BFF35F8F45F82360D2
:100744004CF82360C3695B6A5AF8236026F4803648
:100754004AF823605AF8236003F01F06B4405B098B
:10076400BFF35F8F45F823404CF823401C23076AEE
:1007740063F39F01B970DEF8141044F65513C5F203
:100784004333C0E90131BDE8F047104670470346E2
:100794000020C3E905127047024680690860002101
:1007A400002091617047062070470620704780B58D
:1007B400D0F820E09EF802C00CF07B038EF80230E3
:1007C400837803F00303A2EB030C0B44026AC0E931
:1007D400033C937843F080039370827802F0030221
:1007E400022A05D10988006A41F47E41C18102E0F0
:1007F4000978006AC170002080BD000000F01AF87A
:1008040000F0E7FFFEE74EF22000C4F20100817918
:10081400006840F20842C2F20002C0F3026052F8DB
:10082400211021FA00F040F22441C2F200010860D4
:100834007047000010B54EF60850CEF200004FF499
:100844007001C0F8801040F20001C0F200010160A4
:1008540000200024FFF72CFD00F06CF80120FFF7C6
:1008640027FD40F20800C2F2000080F30A8800204D
:1008740000F032F8FFF7C7FFFFF760FC0320FFF733
:100884009AFC40F61050C4F208004FF6FF7100BF06
:1008940020F814100134082CFAD10320FFF7B2FC1D
:1008A4000320FFF788FC0420C4F20E00002101603D
:1008B40041608160C1600320FFF7A4FC0220FFF7C0
:1008C400F7FC012000F008F800F0CAF80020BDE8A9
:1008D400104000F0C4B80000F0B581B041F6044502
:1008E400C0F200052E68044676B16868071D00BF93
:1008F4007879844204D157E90101091AFFF7C1FB51
:10090400013E07F10C07F3D1AE6886B1E86800F147
:10091400080500BF6879844205D155E902022968B7
:10092400121AFFF795FB013E05F11005F2D101B053
:10093400F0BD00002DE9F0414EF2FE34C4F2010492
:100944004AF203504CF200152080C4F20105012044
:10095400A88000BFA8880028FCD10120288040F28C
:10096400084642F6005041F20022C2F20006C0F2EC
:100974003110C0F27A02C6E9000241F600304FF4A9
:100984000041C0F2B700C6E9021043F68050C0F639
:10099400CD304EF220073161C4F201077061B8799D
:1009A400396856F82000C1F3026140F22448C84077
:1009B400C2F20008C8F8000020206075092087F8FA
:1009C400820094F8820018B994F88300800741D01B
:1009D40094F8820050B9012084F88200C8200121D3
:1009E400FFF739FC94F882000128FBD1002084F839
:1009F400830084F882000020B87400BF387F0007A9
:100A0400FCD54FF4005038810020B872387F80063E
:100A1400FCD50120287741F22120C2F2021038606F
:100A24000520B871B879396856F82000C1F302611D
:100A3400C840C8F8000042F20800C4F20000F121E6
:100A4400017100210170F02101714FF425402080D3
:100A5400BDE8F0814FF47A70FFF729FCCBE77047CB
:100A640070B584B048F248060320C4F20006FFF7CC
:100A7400A2FB6FF0FF0041F6144430604FF0FF30EA
:100A84000021C0F200040122CDE9020054F8213013
:100A940002FA01F5002B18BFA84301310429F5D14E
:100AA4004EF280320190002001A9CEF2000200BF74
:100AB40051F8203006EB8005AB6242F8203001305B
:100AC4000328F5D10320FFF79DFB46F200310020F7
:100AD400C4F2000154F820200AB141F8202001306A
:100AE400042804BF04B070BDF4E701380028FCD129
:100AF400704700002DE9F04F81B0044600880028BB
:100B04005AD043F240084EF2BB4B0025C4F2080809
:100B14000FF2AC0AC4F2010B4FF00109002700BF29
:100B240060685AF8272000EBC500416891423CD127
:100B340000689BF8001000F0B85009FA07F6B0F10D
:100B4400807F06EA010015D150B90120FFF733FB7D
:100B54009BF8000030438BF800000120FFF752FBA4
:100B640018F91700002820D418F8170040F0800066
:100B740015E000BF50B10120FFF71DFB9BF80000FA
:100B8400B0438BF800000120FFF73CFB18F9170075
:100B9400B0F1FF3F09DC18F8170000F07F0008F8F7
:100BA4001700C8200121FFF756FB0137032FB7D1E7
:100BB400208801358542B1D301B0BDE8F08F00BF74
:100BC400020400000304000004040000002861D0B3
:100BD4002DE9F04F81B00446FFF75EFA00285BD0A0
:100BE400054640F22840C2F200000168013101606C
:100BF40000F08CF840F68010C2F200000168002971
:100C040040F67C11C2F2000102D10A78012A09D10E
:100C140040F68C12C2F20002136801331360002202
:100C240002600A7040F22C4040F2FC59C2F200000B
:100C34000021C2F2000940F6AC0A40F6F13640F257
:100C44002E4B40F22D480170C9F80010C2F2000A80
:100C5400C2F20006C2F2000BC2F200080120DAF868
:100C6400007031708BF8001088F8000041F63040B5
:100C7400C0F20000816800688B6821462A469847C4
:100C840070B104208BF80000002088F800009BF865
:100C9400000002E004207047042001B0BDE8F08F9A
:100CA400307870B96FF0620400F030F801204FF42E
:100CB4007A71FFF7D0FA307818B9002C04F10104E6
:100CC400F2D130780028DCD040F2DC5400F01EF879
:100CD4009BF8000098B9DAF80000B8420AD1D9F8B4
:100CE400000048B901204FF47A71FFF7B4FA013CCF
:100CF400ECD104E0052000E006208BF800009BF80E
:100D040000000028C0D10320BCE700002DE9F04F0B
:100D140081B040F67C1840F6801C40F6941640F6EC
:100D2400B007C2F20008C2F2000CC2F20006C2F21E
:100D3400000798F80010DCF8000032683B689A421B
:100D440002D101B0BDE8F08F40F2AC7540F6BC04AE
:100D540040F23B5AC2F20005C2F200040FF2EC3B2F
:100D6400C2F2000AAB5C0132D2B2092B32600ED05F
:100D74000D2B18BF0A2B05D1C9070DD0002088F808
:100D8400000039E0A3F120025E2A00F2FB80C907CB
:100D94002DD0012114E100BF002800F001810021C1
:100DA40021542046FFF778F9814620460FF26C3132
:100DB4000A22FFF786F918B32046DBA10B22FFF7BE
:100DC40080F9E8B12046DBA10A22FFF77AF9B8B12D
:100DD4002046DBA10A22FFF774F988B1002000BF86
:100DE400215C0AF8001001304845F9D911E0BE2809
:100DF40000F2D88023540130CCF800000021DFE059
:100E0400002000BF1BF800100AF80010013022284F
:100E1400F8D140F68811C2F200010868B9F10A0F4E
:100E240000F1010008600DD304EB09000A38D0A1D9
:100E3400FFF739F930B940F63441C2F200010868CD
:100E44000130086040F27840C2F20000007828B314
:100E54002046CAA10722FFF734F9F8B940F27A42D2
:100E64000020C2F2000200BF215C11540130484549
:100E7400FAD92046C3A10922FFF723F940F23A51D7
:100E840000284FF00200C2F2000108BF01200870E0
:100E940040F278410020C2F2000108702046BCA153
:100EA4000822FFF70EF9F0B940F208620020C2F2FE
:100EB400000200BF215C115401304845FAD9B9F150
:100EC400090F09D1207A3038C1B202299EBF40F2FD
:100ED400C861C2F20001087040F20461C2F200016C
:100EE4000868013008602046ACA10C22FFF7E9F83D
:100EF400F8B940F2D0620020C2F20002215C115421
:100F040001304845FAD92046A8A10D22FFF7D9F8A7
:100F140040F2907100284FF00200C2F2000108BFB5
:100F24000120087040F2CC61C2F20001086801306F
:100F3400086040F22D40C2F20000007830B140F267
:100F44002E40C2F20000007800283FD040F69811ED
:100F5400C2F2000108680130086040F6801C0020DD
:100F6400C2F2000C40F6B00740F2AC7540F694169D
:100F7400CCF800000021C2F20007C2F20005C2F260
:100F840000061DE040F6B801C2F200010868013015
:100F940008600121002088F80010CCF800000FE060
:100FA40000202BE70121002040F6841388F800106C
:100FB400CCF80000C2F200031A6801321A6000BFC4
:100FC40032683B689A427FF4CDAEBAE640F69C1094
:100FD400C2F20000007888B1204678A10822FFF709
:100FE40070F8A046002808BF08F108084046FFF73B
:100FF40053F844F624170123112835D2204672A150
:1010040003220125FFF75DF820B341F6485120463D
:10101400C0F200010522FFF754F840F67C180028BE
:10102400C2F2000899D140F69C10C2F20000007888
:1010340040F6A412C2F2000228B10020215C11542F
:1010440001304845FAD940F22E410220C2F2000193
:10105400087082E740F22E40C2F2000040F67C188D
:101064000570C2F2000878E7002000BF0E280BD8F4
:1010740003FA00F1394207D018F800103A29BDD11B
:1010840001301128F2D111E018F80010A1F130025A
:10109400D2B20A2AF4D36FF0600252FA81F2062A1D
:1010A400EED3C9B241390529EAD9A7E740F6A01120
:1010B400C2F2000108680130086040F66420C2F200
:1010C4000000007840B940F6642009F10102C2F240
:1010D40000002146FEF7BCFF40460921FEF7FEFF53
:1010E40000283FF48BAF41F64E510130C0F20001AD
:1010F400FEF7D9FF012100287FF480AF40F630309D
:10110400C2F2000001700020215C40F63132C2F2CC
:101114000002115401304845F6D96FE741542B576A
:10112400464A4150413D000041542B4E574D5143D6
:1011340049443D0041542B4E574D514C493D00000C
:1011440041542B4E574D5154543D00003C7265643C
:1011540061637465642073656E7369746976652070
:10116400636F6D6D616E64206563686F3E0000009F
:1011740057414B4555502C45585400002B57464A6F
:1011840041503A002B57464A41503A312C00000056
:101194002B4E574D51434C3A000000002B4E574DF7
:1011A400514D5347534E443A000000002B4E574DC7
:1011B400514D5347534E443A310000002B57465388
:1011C40043414E3A000000004F4B000070B110B58F
:1011D400044600BF013CFFF799FD01204FF47A71EA
:1011E400FFF739F8002CF5D1BDE810407047000036
:1011F40040F6B000C2F200000027076040F69410E9
:10120400C2F20000076040F69010C2F200000760CE
:1012140040F6AC00C2F20000076040F6B400C2F22F
:101224000000076040F68810C2F20000076040F634
:101234009810C2F20000076040F68410C2F2000069
:10124400076040F6B800C2F20000076040F68C1058
:10125400C2F20000076040F62840C2F200000760B6
:1012640040F63840C2F20000076040F6344540F6CC
:101274004440C2F20005C2F200002F60076040F64D
:101284004040C2F20000076040F63C40C2F2000059
:10129400077040F63D40C2F20000077040F630404F
:1012A400C2F20000076040F68010C2F2000007603E
:1012B40040F67C10C2F20000077040F6F130C2F232
:1012C4000000077040F6244640F22840C2F20006AF
:1012D400C2F200003770076040F22D40C2F20000F5
:1012E400077040F22C40C2F20000077040F22F4910
:1012F40040F26C4A40F20060C2F20009C2F2000AF5
:10130400C2F2000089F800708AF80070077040F299
:101314006940C2F20000077040F62530C2F20000B6
:10132400077040F62C40C2F20000077040F64840B7
:10133400C2F20000077040F26A40C2F20000077077
:1013440040F26B40C2F20000077040F26D40C2F2FE
:101354000000077040F26E40C2F20000077040F2D5
:101364006840C2F20000077040F62C30C2F2000060
:10137400076040F62430C2F20000077040F69C106B
:10138400C2F20000077040F27940C2F20000077018
:1013940040F23A50C2F20000077040F27840C2F2C4
:1013A4000000077040F63030C2F20000077040F6CB
:1013B400A010C2F20000076040F62630C2F200001E
:1013C400077040F62830C2F20000076040F2A070B7
:1013D400C2F20000076040F2A870C2F20000076089
:1013E40040F2A470C2F20000076040F2C860C2F28A
:1013F4000000077040F29070C2F20000077040F2E3
:101404000460C2F20000076040F2CC60C2F2000047
:10141400076040F66420C2F20000077040F63130E5
:10142400C2F20000077040F27A40C2F20000077076
:1014340040F6A410C2F20000077040F20860C2F245
:101444000000077040F2D060C2F20000077040F262
:101454003B5041F63041C2F20000C0F20001077077
:1014640007C91268904768B340F22E4040F63D44E5
:10147400C2F200000421C2F200040170207840F29C
:1014840070440638C2F2000418BF0120307000BF57
:101494003578204640F203110122FEF721FF002D8A
:1014A4004FF0640508BF4FF4FA752846FFF78EFE27
:1014B400204640F203110022FEF712FF2846FFF7F0
:1014C40085FEE5E740F63D444A465346C2F2000431
:1014D40040F20060C2F20000D5F800B01F7007703F
:1014E40040F26940C2F20000077040F62530C2F2B3
:1014F400000040F27048177007700120C2F2000823
:101504009146207040464FF4817101229A46FEF7BD
:10151400E7FE18B14A4653461AE000BF0220207085
:1015240040464FF481710022FEF7DAFE50B90120E3
:10153400FFF74CFE40464FF481710122FEF7D0FEC6
:10154400002870D040F63D444A465346C2F2000497
:1015540040F63041C2F200010860082020700420E7
:1015640010700620187040F62C40C2F2000007707C
:1015740040F64840C2F20000077040F26A40C2F2EE
:101584000000077040F26D40C2F20000077040F2A4
:101594006B40C2F20000077040F26E40C2F20000DD
:1015A400077040F26840C2F20000077040F62C3029
:1015B400C2F20000076040F62430C2F20000077057
:1015C40040F27940C2F20000077040F23A50C2F291
:1015D400000007702078063818BF0120307030787A
:1015E400E0B140F27044C2F20004204640F203111C
:1015F4000122FEF775FE6420FFF7E8FD204640F265
:1016040003110022FEF76CFE4FF4FA60FFF7DEFDD3
:1016140040F63D44C2F2000453464A46307800285E
:101624007FF456AF2AE740F630404FF00008C2F28C
:10163400000040F63841C0F80080C2F2000108689A
:1016440040F200640130086040F63D40C2F2000000
:10165400032101700421017040F64440C2F20000ED
:10166400C0F8008040F64040C2F20000C0F800809C
:1016740040F63C40C2F20000C2F2000480F8008050
:10168400FFF744FB286808F1010858450FD10120F1
:101694004FF47A71FEF7DFFD40F2DC50804540F6EE
:1016A4004440C2F20000C0F80080E9D10BE040F6EB
:1016B4003C40C2F200000121017040F64440C2F2F5
:1016C4000000C0F8008040F2FC51C2F2000108683A
:1016D40040F64048C2F20008C8F8000040F63C401A
:1016E4000F60C2F200000078002863D040F63D404D
:1016F400C2F200000521017001208AF8000041F6C1
:101704009230C0F20000FFF761FA207020780128BF
:101714000DD102208AF8000041F68030C0F20000AA
:10172400FFF754FA40F26941C2F20001087040F236
:101734006940C2F20000007801281AD103208AF817
:10174400000041F6B330C0F20000FFF73FFA89F819
:10175400000099F8000004208AF8000041F6A13046
:10176400C0F20000FFF732FA40F62531C2F2000160
:101774000870207840F63D4401284A465346C2F298
:10178400000414D140F26940C2F20000007801283C
:101794000DD1107801280AD140F62530C2F200009C
:1017A4000078012803D10520187006200FE00620D8
:1017B40018700BE0032089F80000062040F63D4431
:1017C4004A4653468AF80000C2F2000407202070FB
:1017D400C9E680B5FFF70CFD002080BD70B5044656
:1017E400FFF788F940F29C7CEFF31080012181F32C
:1017F4001088C2F2000CDCF8001039B940F603512D
:10180400C4F2080100220A7040220A70DCF80010B9
:101814000131CCF8001080F31088208818B340F60A
:10182400000E0021C4F2080E606800EBC10250F8FB
:1018340031305268DD034FEA1220D2B20BD50EEBE1
:10184400801555F8226026F4803645F8226023F48A
:10185400803645F822600EEB8010013140F82230CA
:1018640020888142E0D30120EFF3108180F31088B7
:10187400DCF8000020B1DCF800000138CCF80000EE
:10188400DCF8000038B940F60350C4F20800002226
:1018940002708022027081F3108870BDB0B584B0EC
:1018A4000446806A40B1D0E900CED0E90253CDE9C4
:1018B40000CECDE9025300E06846E369D4F824C0C1
:1018C4001B78E56AC0E90032C0E90215E047A06A66
:1018D40010B19DE82E002EC004B0B0BDB0B5EFF33A
:1018E40003806FF35F20A0F1100540F64C40C2F274
:1018F400000050F825008178036A01F003010229F1
:1019040012BF5979198A6FF35F211A79D40602F04C
:10191400380203D51C7FE40708BF40321C7904F069
:10192400C7041C71436A0BB1FFF7B8FF46F20030DD
:10193400C4F2000050F8251021F4803140F825103D
:1019440050F82500B0BD10B582B0EFF3038040F22B
:10195400FC7101EA800046F2C021C4F20001425841
:1019640022F48032425040F64C42C2F20002415806
:10197400104450F8404CA07800F00302206A022A78
:1019840012BF4179018A6FF35F21A069019198B177
:10199400606901A9FEF75CFBA0786169A26900F0A7
:1019A40003000144101A6161A0610ED1606A60B144
:1019B40020460021012203E0606A30B1204604225F
:1019C40002B0BDE81040FFF769BF02B010BD10B50A
:1019D400EFF303806FF35F20A0F1100440F64C4056
:1019E400C2F2000050F82400016A8A7802F07B02F7
:1019F4008A70416A19B100210222FFF74FFF46F2B3
:101A04000030C4F2000050F8241021F4803140F872
:101A1400241050F8240010BDEFF3038040F2FC7151
:101A240001EA800046F2C021C4F20001425822F4C7
:101A34008032425040F64C42C2F2000241581044F7
:101A440050F8400CC1694A6B0169C2B9C1B18178CF
:101A540001F00302C168022A05D10988026A41F42F
:101A64007E41D18102E00978026AD17081780269ED
:101A740001F00303D11AC26801611A44C26071B94A
:101A8400016A8A7802F07B0204328A70416A002972
:101A94004FF00001C1601CBF8022FFF7FFBE7047FA
:101AA400A0B3416811F0780F0DD040F2FC52C2F29D
:101AB400000213680B43136040F62842C2F200028E
:101AC40013680133136002291AD004291ED110B5FA
:101AD40040F6B00EC2F2000EDEF8001040F6941C80
:101AE400C2F2000C0131DCF80030CAB29A420ED1C5
:101AF40040F6AC00C2F2000001680131016010BD83
:101B040040F6F130C2F20000012101707047806894
:101B1400DEF8003040F2AC74C2F20004E05440F647
:101B24009010CEF80020C2F2000002680132026078
:101B3400DCF80000091A40F6B400C2F200000268A2
:101B4400C9B2914288BF016010BD000000000020AE
:101B5400000000200000006000010C0300000020D1
:101B64000000002000000008000002030000002024
:101B740004000020500000000000010341542B43E6
:101B84004C5244504D534C504558540D0A00415446
:101B94002B4D43555755444F4E450D0A0041542B88
:101BA40053455444504D534C504558540D0A00412C
:101BB400540D0A0008000000C41B000000000000CF
:101BC4000000010400010000000001040101000004
:101BD40005000000020100000400000003010000F1
:101BE40000000100080100000000010009010000DC
:101BF400000001000A0100000000010000030000D1
:101C040001000000581D000003000000501B0000EC
:101C140080010000810100008201000083010000B6
:101C2400010002000800100020000000F40B002056
:101C34003C1C0000AC1C000000000000020000007E
:101C440000000000000000000C0000000000000084
:101C54000C000000010000000C0000000200000065
:101C64000C00000003000000000000000000000061
:101C7400A51A000000000000801C00000000000005
:101C84000100000000000000000000200F00000020
:101C9400FFFF000000000000000000000000000042
:101CA400FFFF00000000000057040000930700003D
:101CB400B30700002F0300004B0400000D030000D5
:101CC40097030000A50300009D070000AF07000074
:101CD400AB0700000000000800000008002000001E
:101CE4000020000000000000C0A1000140A200018B
:101CF40040A20001C0A20001C0A20001C0A10001D5
:101D040004A1000100A1000180A1000104A20001BE
:101D140000A2000184A2000180A2000180A10001B0
:101D2400E0A1000160A2000160A20001E0A10001A5
:101D3400000000600000006000100020001000207F
:101D4400000000204552524F52007869616F6D695E
:101D540000000000240400205C0C002000000003AC
:101D640000000606362E362E30004275696C74204B
:101D7400776974682052656E657361732041647677
:101D8400616E63656420466C657869626C65205396
:101D94006F667477617265205061636B616765205B
:101DA40076657273696F6E20362E362E3000000011
:020000040100F9
:04A10000FFFFFFFF5F
:020000040100F9
:04A20000FFFDFFFF60
:020000040100F9
:04A28000F8F8FFFFEC
:0400000500000801EE
:00000001FF
