:020000040000FA
:1000000008040020CD070000C9000000C500000062
:10001000C5000000C5000000C5000000C5000000CC
:10002000000000000000000000000000C50000000B
:10003000C500000000000000C5000000C500000071
:10004000C30F0000951000004B100000590F000076
:040050004000340038
:020000040000FA
:1000540040EA01039B0703D009E008C9121F08C046
:10006400042AFAD203E011F8013B00F8013B521EC6
:10007400F9D27047D2B201E000F8012B491EFBD23D
:1000840070470022F6E710B513460A46044619469F
:10009400FFF7F0FF204610BD421C10F8011B002999
:1000A400FBD1801A704730B504460020034600E0B7
:1000B4005B1C934203D2E05CCD5C401BF8D030BDA6
:1000C40000BE70472DE9F04146F22018C4F2000842
:1000D400B8F80000B8F8201040F2304501EA0006F4
:1000E400B7B20024C2F2000527FA04F0C00704D016
:1000F40055F8241009B12046884701340E2CF3D159
:10010400A8F81060BDE8F081B0B543F22404C4F24D
:1001140008040025C8200121257100F082F825700B
:1001240020780028FCD1207840F00200207000BF25
:1001340020788007FCD4002004F8020C14F8020C88
:100144000028FBD1002004F11C0100BF11F810208D
:1001540002F07F0201F8102011F91020002AFBD4CC
:1001640001300328F2D1012000F00BF84EF2BB421B
:100174000021C4F2010201201170BDE8B04000F07A
:1001840027B880B50122EFF3108182F3108840F282
:100194007442C2F2000232F810308BB94EF2FE3CC7
:1001A40041F23423C4F2010CC0F20003BCF800E0B5
:1001B40033F8103043EA0E0343F42543ACF800301F
:1001C40032F81030013322F8103081F3108880BDEA
:1001D4000122EFF3108182F3108840F27442C2F2DC
:1001E400000232F8103023B132F81030013B22F80B
:1001F400103032F810208AB94EF2FE3CC4F2010CE1
:1002040041F23422BCF80030C0F2000232F810008F
:1002140043F4254222EA0000ACF8000081F3108880
:10022400704740F22442C2F20002136801FB00F05E
:100234004CF60021C3F69A3148F63812C0F2410256
:10024400B1FBF3F1904207D24FF47A7200FB02F053
:10025400B0FBF1F0800808E08900B0FBF1F09042B7
:1002640007D24FF47A7100FB01F008B100F023BC0F
:1002740070474FF0FF3000F01EBC7047022818BFD3
:10028400704740F2684041F2D011C2F20000C0F25F
:100294000001AFF3008080B545F25422C5F24F024D
:1002A4000260084600F0D6FD002080BDC8B20123DC
:1002B40083409BB24FF4803C002A08BF0CFA00F341
:1002C4004FF4FF5000EAD1010822C4F208020020D2
:1002D4008B5070478A0701D4062206E0026A93789D
:1002E40003F07B03937000220261C9071CBF002244
:1002F40082611046704710B5C2690123127803FA6F
:1003040002F212F0060F02D00A78120723D4026A0E
:100314004FF0000E92F802C00CF00B039370036AC6
:100324008A78C0F80CE05A704A781C7802F003020C
:1003340004F0FC0422441A70CA789A74DA790978B1
:1003440002F0A30201F05C011144D971006A0CF0BF
:100354007B01817001E04FF0030E704610BD8446AE
:10036400C0E909130020CCF82C207047026A002150
:1003740041609170C1694EF2801C4A69012102F00A
:100384001F0301FA03F35209CEF2000C4CF8223099
:10039400BFF34F8FBFF36F8FC269D26A02F01F039E
:1003A40001FA03F352094CF82230BFF34F8FBFF325
:1003B4006F8FC269D26902F01F0301FA03F3520975
:1003C4004CF82230BFF34F8FBFF36F8FC269526A6C
:1003D40002F01F0301FA03F352094CF82230BFF371
:1003E4004F8FBFF36F8FEFF3108281F3108844F2C5
:1003F4000403C069C4F2080300784FF0004C196884
:100404002CFA00F008431860186882F31088002062
:1004140070474FF0FF3200200A604A6070470A7844
:100424000123934013F0060F05D00B6CDB681B7897
:100434001B0700F1E0802DE9F04748F20003C4F205
:10044400110343EA0222D1E90E364FF00008436259
:100454008378C66223F003035E1C86704E680262D2
:1004640080F80080C161C0F8288016B943F0020307
:100474008370CF6A4EF2001C07F01F034FF0010E89
:10048400CEF2000C0EFA03F30CF180047E0991F80D
:10049400285044F82630BFF34F8F46F2003AC4F296
:1004A400000ABFF36F8F5AF827602A0126F48036BA
:1004B4004AF827600CF540755AF82760EA554A69EE
:1004C40040F22C6902F01F06C2F200090EFA06F689
:1004D400530949F827000F7C44F82360BFF34F8F7A
:1004E400BFF36F8F5AF822303E0123F480334AF869
:1004F40022305AF82230AE5449F82200CA690B7EE1
:1005040002F01F060EFA06F6570944F82760BFF3F7
:100514004F8FBFF36F8F5AF822601B0126F4803689
:100524004AF822605AF82260AB5449F822004A6A19
:1005340091F8203002F01F060EFA06F6570944F827
:100544002760BFF34F8FBFF36F8F5AF822401B0110
:1005540024F480344AF822405AF82240AB5449F833
:100564002200EFF310828EF3108844F204050B7816
:10057400C4F208054FF000442E6824FA03F326EA77
:1005840003032B602B6882F31088026A82F80280CE
:10059400026A82F80480026A82F80980026A82F898
:1005A4000A80026A82F80B80026AA2F81A800A782A
:1005B4000EFA02F340F21922134202D0036A4024D5
:1005C400DC74036A06241C770B780EFA03F31342D7
:1005D40003D0026A4FF478439382D1E90163CA6875
:1005E4004FEAC20242EA03123EB1032E08BF42F0B0
:1005F4004002F22602E00322ADE0E226036A02276B
:100604001A70026A002596710A6C936907EA430717
:10061400082B036A08BF0A275F73066AD2E9013709
:1006240035721668DB0126F00106022EDEB267F38E
:1006340045160AD1036AFF275F701268022A026A0C
:1006440008BF46F01006D67117E0036ADE71D2685F
:10065400036A97785F7057781E7807F0030706F0EF
:10066400FC0637441F70D7789F74DF79127807F03F
:10067400A30702F05C023A44DA710022C369C0E9BC
:100684000322C0E90522D1F840E05B699EF800101E
:100694005AF8234003F01F0524F480344AF8234019
:1006A4005AF82340012404FA05F60CF5C0755B09D9
:1006B400BFF35F8F45F823604CF82360C369DB6A9E
:1006C4005AF8236026F480364AF823605AF82360E7
:1006D40003F01F0604FA06F65B09BFF35F8F45F8C3
:1006E40023604CF82360C369DB695AF8236026F45D
:1006F40080364AF823605AF8236003F01F0604FA90
:1007040006F65B09BFF35F8F45F823604CF823605E
:10071400C3695B6A5AF8236026F480364AF823607A
:100724005AF8236003F01F06B4405B09BFF35F8FE0
:1007340045F823404CF823401C23076A63F39F01C8
:10074400B970DEF8141044F65513C5F24333C0E90A
:100754000131BDE8F0471046704703460020C3E965
:1007640005127047024680690860002100209161EB
:100774007047062070470620704780B5D0F820E007
:100784009EF802C00CF07B038EF80230837803F0ED
:100794000303A2EB030C0B44026AC0E9033C937805
:1007A40043F080039370827802F00302022A05D199
:1007B4000988006A41F47E41C18102E00978006A37
:1007C400C170002080BD000000F01AF800F03CFB6E
:1007D400FEE74EF22000C4F201008179006840F285
:1007E4000842C2F20002C0F3026052F8211021FA5A
:1007F40000F040F22441C2F200010860704700009A
:1008040010B54EF60850CEF200004FF47001C0F857
:10081400801040F20001C0F20001016000200024B9
:10082400FFF72CFD00F06CF80120FFF727FD40F2E4
:100834000800C2F2000080F30A88002000F032F8B9
:10084400FFF7C7FFFFF760FC0320FFF79AFC40F6B1
:100854001050C4F208004FF6FF7100BF20F81410C6
:100864000134082CFAD10320FFF7B2FC0320FFF770
:1008740088FC0420C4F20E00002101604160816004
:10088400C1600320FFF7A4FC0220FFF7F7FC01205E
:1008940000F008F800F0CAF80020BDE8104000F0AD
:1008A400C4B80000F0B581B041F21425C0F20005CF
:1008B4002E68044676B16868071D00BF78798442C3
:1008C40004D157E90101091AFFF7DBFB013E07F1E7
:1008D4000C07F3D1AE6886B1E86800F1080500BFE3
:1008E4006879844205D155E902022968121AFFF792
:1008F400AFFB013E05F11005F2D101B0F0BD0000DF
:100904002DE9F0414EF2FE34C4F201044AF20350E0
:100914004CF200152080C4F201050120A88000BF1C
:10092400A8880028FCD10120288040F2084642F61D
:10093400005041F20022C2F20006C0F23110C0F2AF
:100944007A02C6E9000241F600304FF40041C0F2D9
:10095400B700C6E9021043F68050C0F6CD304EF21F
:1009640020073161C4F201077061B879396856F81B
:100974002000C1F3026140F22448C840C2F20008DA
:10098400C8F8000020206075092087F8820094F8D8
:10099400820018B994F88300800741D094F882004B
:1009A40050B9012084F88200C8200121FFF739FCE6
:1009B40094F882000128FBD1002084F8830084F895
:1009C40082000020B87400BF387F0007FCD54FF4C4
:1009D400005038810020B872387F8006FCD5012091
:1009E400287741F22120C2F2021038600520B87144
:1009F400B879396856F82000C1F30261C840C8F8D4
:100A0400000042F20800C4F20000F121017100214B
:100A14000170F02101714FF425402080BDE8F08180
:100A24004FF47A70FFF729FCCBE7704770B584B0B8
:100A340048F248060320C4F20006FFF7A2FB6FF059
:100A4400FF0041F2242430604FF0FF300021C0F257
:100A540000040122CDE9020054F8213002FA01F524
:100A6400002B18BFA84301310429F5D14EF280327E
:100A74000190002001A9CEF2000200BF51F82030FD
:100A840006EB8005AB6242F8203001300328F5D133
:100A94000320FFF79DFB46F200310020C4F2000161
:100AA40054F820200AB141F820200130042804BF62
:100AB40004B070BDF4E701380028FCD17047000091
:100AC4002DE9F04F81B00446008800285AD043F243
:100AD40040084EF2BB4B0025C4F208080FF2AC0AE2
:100AE400C4F2010B4FF00109002700BF60685AF8F7
:100AF400272000EBC500416891423CD100689BF877
:100B0400001000F0B85009FA07F6B0F1807F06EA49
:100B1400010015D150B90120FFF733FB9BF8000009
:100B240030438BF800000120FFF752FB18F917003F
:100B3400002820D418F8170040F0800015E000BF0A
:100B440050B10120FFF71DFB9BF80000B0438BF868
:100B540000000120FFF73CFB18F91700B0F1FF3F3C
:100B640009DC18F8170000F07F0008F81700C82007
:100B74000121FFF756FB0137032FB7D12088013538
:100B84008542B1D301B0BDE8F08F00BF020400007C
:100B940003040000040400009CB040F28C50C2F234
:100BA40000000021016040F2945540F2C85640F222
:100BB400284A41F24020C2F20005C2F20006C2F205
:100BC400000AC0F2000029703170CAF8001087686A
:100BD400D0E900413A682046904740F22C41C2F2E5
:100BE400000110B104200870FAE040F2885B40F282
:100BF400905940F28448CDE90174C2F2000BC2F26C
:100C0400000904AFC2F20008DAF8000040F2CC5147
:100C14000130CAF80000DBF80000C2F20001C9F894
:100C240000000020087040F27041C2F20001086028
:100C340040F28451C2F200010C682870019841F21C
:100C4400C41183680298C0F200010822984708B1D1
:100C540004209AE00394287870B96FF0620400BF0E
:100C640001204FF47A71FFF7DCFA287820B9002CC0
:100C740004F10104F4D100BF28780028E8D04FF033
:100C8400000A0024002500BFD9F80020DBF800008A
:100C9400824249D0204600BF18F802100132D2B275
:100CA4000D29C9F8002018BF0A2919D1A0B33D5451
:100CB400384661A10522FFF7F6F9D8B19DF8100076
:100CC4004F2823D19DF811004B281FD19DF8120005
:100CD400E0B940F2CC50C2F200000078E0B13FE04D
:100CE400A1F120025E2A4FF000049EBF5E28441C3E
:100CF400395412E03846FFF7CFF9421C40F2CC5089
:100D0400C2F200003946FFF7A3F905E038464CA1CA
:100D14000522FFF7C8F928B30024D9F80020DBF82E
:100D2400000082422046B7D140F28450C2F2000053
:100D340000680399884217D140F27040C2F2000063
:100D4400006898B901204FF47A71FFF76AFA0AF142
:100D5400010A40F2DC5082457FF496AF032006E09E
:100D640001200AE0022002E0052000E0062040F213
:100D74002C41C2F200010870087840F2945540F208
:100D8400284AC2F20005C2F2000A40F22C41C2F223
:100D9400000108700878013818BF012030703078DD
:100DA400D0B140F26844C2F20004204640F203117C
:100DB4000122FFF77BFA64204FF47A71FFF731FACE
:100DC400204640F203110022FFF770FA4FF4FA6054
:100DD4004FF47A71FFF725FA307800287FF414AFC6
:100DE40040F22C40C2F20000007840F2684401381E
:100DF400C2F2000418BF0120307000BF35782046CD
:100E040040F203110122FFF751FA002D4FF064055F
:100E140008BF4FF4FA7528464FF47A71FFF701FAC8
:100E2400204640F203110022FFF740FA28464FF40F
:100E34007A71FFF7F6F9E1E72B5645523A000000C4
:100E44004552524F5200000080B5FFF7A5FE002026
:100E540080BD000070B50446FFF732FE40F2804CBE
:100E6400EFF31080012181F31088C2F2000CDCF84A
:100E7400001039B940F60351C4F2080100220A7087
:100E840040220A70DCF800100131CCF8001080F325
:100E94001088208818B340F6000E0021C4F2080E12
:100EA400606800EBC10250F831305268DD034FEA4C
:100EB4001220D2B20BD50EEB801555F8226026F421
:100EC400803645F8226023F4803645F822600EEB24
:100ED4008010013140F8223020888142E0D3012083
:100EE400EFF3108180F31088DCF8000020B1DCF807
:100EF40000000138CCF80000DCF8000038B940F6F6
:100F04000350C4F20800002202708022027081F3B0
:100F1400108870BDB0B584B00446806A40B1D0E991
:100F240000CED0E90253CDE900CECDE9025300E072
:100F34006846E369D4F824C01B78E56AC0E9003246
:100F4400C0E90215E047A06A10B19DE82E002EC04A
:100F540004B0B0BDB0B5EFF303806FF35F20A0F130
:100F6400100540F22C60C2F2000050F82500817890
:100F7400036A01F00301022912BF5979198A6FF338
:100F84005F211A79D40602F0380203D51C7FE407E6
:100F940008BF40321C7904F0C7041C71436A0BB1CA
:100FA400FFF7B8FF46F20030C4F2000050F82510F5
:100FB40021F4803140F8251050F82500B0BD10B55B
:100FC40082B0EFF3038040F2FC7101EA800046F244
:100FD400C021C4F20001425822F48032425040F24F
:100FE4002C62C2F200024158104450F8404CA078E0
:100FF40000F00302206A022A12BF4179018A6FF3CA
:101004005F21A069019198B1606901A9FFF720F8F7
:10101400A0786169A26900F003000144101A6161BB
:10102400A0610ED1606A60B120460021012203E074
:10103400606A30B12046042202B0BDE81040FFF7D8
:1010440069BF02B010BD10B5EFF303806FF35F20EA
:10105400A0F1100440F22C60C2F2000050F8240009
:10106400016A8A7802F07B028A70416A19B1002110
:101074000222FFF74FFF46F20030C4F2000050F89E
:10108400241021F4803140F8241050F8240010BDBD
:10109400EFF3038040F2FC7101EA800046F2C021C4
:1010A400C4F20001425822F48032425040F22C62D1
:1010B400C2F200024158104450F8400CC1694A6B16
:1010C4000169C2B9C1B1817801F00302C168022A81
:1010D40005D10988026A41F47E41D18102E0097890
:1010E400026AD1708178026901F00303D11AC268DF
:1010F40001611A44C26071B9016A8A7802F07B0204
:1011040004328A70416A00294FF00001C1601CBF9B
:101114008022FFF7FFBE704738B3416811F0780FA3
:1011240006D040F27042C2F2000213680B4313600F
:10113400022914D0042918D140F28851C2F20001C6
:101144000A6840F29053C2F2000301321B68D2B223
:101154009A420BD140F28450C2F2000014E040F2F3
:101164009450C2F20000012101707047D0F808C009
:101174000B6840F28440C2F2000000F803C040F261
:101184008C500A60C2F200000168013101607047AE
:1011940000000020000000200000006000010C039B
:1011A40000000020000000200000000800000203EE
:1011B4000000002004000020500000000000010393
:1011C40041542B5645520D0A000000000700000050
:1011D400DC11000000000000000001040001000018
:1011E40000000104010100000400000003010000EC
:1011F40000000100080100000000010009010000D6
:10120400000001000A0100000000010000030000CA
:1012140001000000581300000300000094110000B6
:1012240080010000810100008201000083010000B0
:1012340001000200080010002000000098050020B2
:101244004C120000BC12000000000000020000006C
:1012540000000000000000000C000000000000007E
:101264000C000000010000000C000000020000005F
:101274000C0000000300000000000000000000005B
:101284001D1100000000000090120000000000008A
:101294000100000000000000000000200F0000001A
:1012A400FFFF00000000000000000000000000003C
:1012B400FFFF000000000000230400005F0700009F
:1012C4007F070000FB02000017040000D9020000A1
:1012D4006303000071030000690700007B0700003E
:1012E4007707000000000008000000080014000058
:1012F4000014000000000000C0A1000140A2000191
:1013040040A20001C0A20001C0A20001C0A10001CE
:1013140004A1000100A1000180A1000104A20001B8
:1013240000A2000184A2000180A2000180A10001AA
:10133400E0A1000160A2000160A20001E0A100019F
:101344000000006000000060000800200008002089
:1013540000000020240400203C06002000000003BC
:1013640000000606362E362E30004275696C742055
:10137400776974682052656E657361732041647681
:10138400616E63656420466C657869626C652053A0
:101394006F667477617265205061636B6167652065
:1013A40076657273696F6E20362E362E300000001B
:020000040100F9
:04A10000FFFFFFFF5F
:020000040100F9
:04A20000FFFDFFFF60
:020000040100F9
:04A28000F8F8FFFFEC
:04000005000007CD23
:00000001FF
